:100000000C945C000C9477010C9450010C947900D2
:100010000C9479000C9479000C9479000C9479007C
:100020000C9479000C9479000C9479000C9479006C
:100030000C9479000C9479000C9479000C9479005C
:100040000C9406010C9479000C9479000C947900BE
:100050000C9479000C9479000C9479000C9479003C
:100060000C9479000C947900000000002400270013
:100070002A0000000000250028002B0004040404CE
:100080000404040402020202020203030303030342
:10009000010204081020408001020408102001021F
:1000A00004081020000000080002010000030407FB
:1000B000000000000000000011241FBECFEFD8E0B8
:1000C000DEBFCDBF11E0A0E0B1E0EAEBF5E002C099
:1000D00005900D92A430B107D9F721E0A4E0B1E07A
:1000E00001C01D92AF30B207E1F70E949E010C944F
:1000F000DB020C940000809104019091050189308D
:1001000091052CF4019690930501809304010895C4
:1001100090E0FC01EC55FF4F2491FC01E057FF4FAC
:100120003491FC01E458FF4FE491EE23C9F02223FF
:1001300039F0233001F1A8F4213019F1223029F1EE
:10014000F0E0EE0FFF1FEE58FF4FA591B4918FB76F
:10015000F894EC91611126C030953E233C938FBFFB
:1001600008952730A9F02830C9F0243049F780914C
:1001700080008F7D03C0809180008F778093800006
:10018000DFCF84B58F7784BDDBCF84B58F7DFBCF88
:100190008091B0008F778093B000D2CF8091B00073
:1001A0008F7DF9CF3E2BDACFCF93DF9390E0FC0128
:1001B000E057FF4F249184589F4FFC01849188237E
:1001C000D1F090E0880F991FFC01E859FF4FA591ED
:1001D000B491FC01EE58FF4FC591D491623071F497
:1001E0009FB7F8943C91822F809583238C93E8816C
:1001F0002E2B28839FBFDF91CF9108958FB7F8945E
:10020000EC912E2B2C938FBFF6CF08951F920F9257
:100210000FB60F9211242F933F938F939F93AF9319
:10022000BF9380910B0190910C01A0910D01B091B1
:100230000E0130910A0123E0230F2D3758F5019666
:10024000A11DB11D20930A0180930B0190930C0115
:10025000A0930D01B0930E018091060190910701CA
:10026000A0910801B09109010196A11DB11D8093D3
:10027000060190930701A0930801B0930901BF9173
:10028000AF919F918F913F912F910F900FBE0F9043
:100290001F90189526E8230F0296A11DB11DD2CFFD
:1002A0001F920F920FB60F9211242F933F934F93EB
:1002B0005F936F937F938F939F93AF93BF93EF93CE
:1002C000FF93E0910201F09103010995FF91EF91F5
:1002D000BF91AF919F918F917F916F915F914F915E
:1002E0003F912F910F900FBE0F901F9018951F9266
:1002F0000F920FB60F9211242F933F934F935F935A
:100300006F937F938F939F93AF93BF93EF93FF93DD
:10031000E0910001F09101010995FF91EF91BF91EA
:10032000AF919F918F917F916F915F914F913F918D
:100330002F910F900FBE0F901F901895789484B551
:10034000826084BD84B5816084BD85B5826085BDD1
:1003500085B5816085BD80916E00816080936E005F
:100360001092810080918100826080938100809151
:100370008100816080938100809180008160809302
:1003800080008091B10084608093B1008091B000C2
:1003900081608093B00080917A00846080937A00BD
:1003A00080917A00826080937A0080917A008160E7
:1003B00080937A0080917A00806880937A0010920E
:1003C000C10061E08AE00E94D40061E08BE00E94FD
:1003D000D40061E08CE00E94D40061E08EE00E94D5
:1003E000D40061E08FE00E94D40061E080E10E94CF
:1003F000D40061E081E10E94D40061E082E10E94CA
:10040000D40062E082E00E94D4008BE790E09093F9
:10041000010180930001809169008C7F826080934C
:100420006900E89AC0E0D0E0E0910401F091050194
:10043000EA30F10570F5E15EFD4F0C94D50229021A
:100440004F0265027F029102A302B102C702C902F4
:10045000CF0260E08AE00E94880060E08BE00E94AA
:10046000880060E08CE00E94880060E08EE00E94DE
:10047000880060E08FE00E94880060E080E10E94D8
:10048000880061E081E10E94880060E082E10E94D2
:100490008800209709F4C8CF0E940000C5CF61E012
:1004A0008AE00E94880060E08BE00E94880060E0A3
:1004B0008CE00E94880061E08EE00E94880061E08C
:1004C0008FE00E94880061E0D9CF60E08AE00E945E
:1004D000880060E08BE00E94880061E08CE00E9470
:1004E000880060E08EE00E94880060E08FE00E945B
:1004F000880061E080E10E94880060E0C3CF60E096
:100500008AE00E94880060E08BE00E94880060E042
:100510008CE00E94880060E08EE00E94880061E02C
:10052000E5CF61E08AE00E94880060E08BE00E94F5
:10053000880060E08CE00E94880061E08EE00E940C
:10054000880061E01FC060E08AE00E94880061E0EE
:100550008BE00E94880060E08CE00E94880060E0F0
:10056000EDCF60E08AE00E94880061E08BE00E94AD
:10057000880060E08CE00E94880060E08EE00E94CD
:10058000880060E08FE00E94880060E0B3CF60E008
:1005900087CF60E08AE00E94880060E0E7CF60E0FB
:1005A0008AE00E94880060E0D3CFEE0FFF1F059025
:0A05B000F491E02D0994F894FFCFB8
:0405BA000501050131
:00000001FF
